:020000041400E6
:10000000087E0020D900001400F002F800F08AF801
:100010000AA090E8000C82448344AAF10107DA4563
:1000200001D100F07FF8AFF2090EBAE80F0013F02B
:10003000010F18BFFB1A43F0010318475C3B000097
:100040008C3B00000A444FF0000C10F8013B13F009
:10005000070408BF10F8014B1D1108BF10F8015B21
:10006000641E05D010F8016B641E01F8016BF9D114
:1000700013F0080F1EBF10F8014BAD1C0C1B09D16B
:100080006D1E58BF01F801CBFAD505E014F8016BDD
:1000900001F8016B6D1EF9D59142D6D3704700006F
:1000A000103A24BF78C878C1FAD8520724BF30C8A4
:1000B00030C144BF04680C60704700000023002476
:1000C00000250026103A28BF78C1FBD8520728BF68
:1000D00030C148BF0B607047DFF82C00016841F465
:1000E0007001016009480047FEE7FEE7FEE7FEE712
:1000F000FEE7FEE7FEE7FEE7FEE7FEE70448054908
:10010000054A064B7047000088ED00E00900001426
:10011000080C0020087E00200878002008780020C5
:100120007046704740F2DF1CC1F2000C6047F02FB0
:100130000000CD030000D1030000D3030000000045
:1001400000000000000000000000000000000000AF
:1001500000000000000000000000D5030000D703ED
:10016000000000000000D9030000DB030000DD03F5
:100170000000DD030000DD030000000000000000BF
:100180000000DD030000DD030000DD030000DD03EF
:100190000000DD030000DD030000DD030000DD03DF
:1001A0000000DD030000DD0300000000000000008F
:1001B0000000DD030000DD030000DD030000DD03BF
:1001C0000000DD030000DD030000DD030000DD03AF
:1001D0000000DD030000DD030000DD030000DD039F
:1001E0000000DD0300000448854600F02AFA0048BC
:1001F000004761150000C046C046F02F000040BA1D
:100200007047C0BA704770B404680568AC430568AD
:10021000AC4300BF056806682C400568B443AC4396
:1002200005682C400C42EFD001256D0200BF00BFD5
:1002300000BF00BF00BF04682C42FCD000BF0468B0
:100240000C4204D100BF00BF00BF00BF00BF00BF11
:1002500000BF00BF00BF00BF00BF70BC704700BF41
:1002600030B55B180FB400F098FB0FBC00BF013A2B
:1002700000BF00BF00BF00BF00BF00BF00BF00BF86
:10028000F5DA02780A7000BF00BF02784A7000BF3A
:1002900000BF02788A70033100BF02780A70994269
:1002A00002784A70F5DB05682542FCD130BD30B5D7
:1002B0005B005B180FB400F070FB0FBC013A00BF8D
:1002C00000BF00BF00BF00BF00BF00BF00BFF5DA26
:1002D000027800BF00BF00BF00BF047800BF00BFAE
:1002E00000BF00BF0578AD1800BF0D8005782D193F
:1002F00000BF4D800278043100BF00BF00BF04780A
:100300009942EFDB30BDF0B4D718002405590E59DF
:10031000AD19AD0815702D0C557002320434BA4277
:10032000F4DBF0BC704730B50FB400F036FB0FBC07
:1003300000BF00BF00BF00BF00BF00BF00BF00BFC5
:1003400000BF00BF0478891800BF00BF00BF057858
:100350001C70157004789C708A4206DA04789470D8
:1003600004320433047800BFF1E730BD00BF7047AA
:1003700000BF00BF704700BF00BF00BF704700BF95
:1003800000BF00BF00BF7047000040BA7047C0BA4E
:100390007047F0B5D20052180FB400F0FEFA0FBC4F
:1003A00000BF00BF00BF00BF00BF00BF00BF00BF55
:1003B00000BF00BF037876407F4000BF00BF0478D5
:1003C0001D197F194F802F461C1B361936044E60AD
:1003D0002646E405A40E0C80083103789142EEDB3A
:1003E00001277F0203683B42FCD1F0BDFEB5089CAB
:1003F000E400A1460FB400F0D0FA0FBC00BF00BF6C
:1004000000BF00BF00BF00BF00BF00BF8C4600247C
:10041000057800BF00BF00BF083C067808344C4593
:100420004BDA751BAA46ED10AD062D0D195B29435D
:10043000575CB04600BF00BF0578002FEDD00834F0
:1004400000BF06784C4538DA00BF751BAA44ED1092
:10045000AD062D0D195D2943515CB04400BF5646D1
:100460000578B942D9D16546AE8027430234195B7D
:100470004144E980023419593943296000BF0821F9
:100480008C440C3400BF00BF00BF00BF00BF00BFE2
:1004900000BF00BF00BF00BF00BF00BF00BF00BF64
:1004A00000BF00BF00BF00BF00BF00BF00BF00BF54
:1004B00000BF00BF057800BFAFE701256D020668E9
:1004C0002E42FCD10099099A0A9BDB009B180B9CD9
:1004D000E400A41861450AD00868186048685860AC
:1004E000083108339C4200D0F4E7099BF2E76046EC
:1004F0000099401AC008FEBD000004480047FEE70E
:10050000FEE7FEE7FEE7FEE7FEE7FEE70000B900D4
:1005100000007046704703460B439B0703D009E079
:1005200008C9121F08C0042AFAD203E00B7803702E
:10053000401C491C521EF9D27047D2B201E0027031
:10054000401C491EFBD270470022F6E710B5134647
:100550000A4604461946FFF7F0FF204610BD421C2C
:100560000178401C0029FBD1801A704710B5002289
:1005700000E0521C835C8C5CA34201D1002BF8D1BB
:10058000D8B2E1B2401A10BDCB0FDB07490010B55D
:10059000490802460A4307D00A0D07240903E4016B
:1005A000090B121B002A01DC002010BDC900440FFA
:1005B0000C43C100E018D205801800F001F810BD0E
:1005C000002904DA401C490001D14008400070476E
:1005D00070B40024050C05D11024000402D10029B8
:1005E00021D01124050E01D100020834050F01D1DC
:1005F0000001241D850F01D18000A41C002801DB0F
:100600004000641C002908D020252E1B0D46F54013
:10061000A14000D001212943084301061B1B000A09
:10062000DB1D02D5002070BC7047DB051818801850
:100630000029F8DA401C4900F5D170BC40084000A0
:100640007047064C0125064E05E0E36807CC2B43B6
:100650000C3C98471034B442F7D3FFF7C8FD981A02
:100660000000B81A000013B5044601231A4601A978
:10067000204600F00FF81CBD70B506460D462C460E
:1006800004E02178641C3046FFF7EDFF2078002855
:10069000F7D170BDFFB5019E029B0398012823D1BD
:1006A00000241EE00027FF4303E0002F00D106E0F6
:1006B0007F1E00984069202108400028F5D000BF27
:1006C000002F00D10FE0102507E03178761C00984C
:1006D00000F027F86D1E5B1E641C002D01D0002B5E
:1006E000F3D1002BDED119E0002414E0009840691A
:1006F00020210840002800D10FE0102507E03178C4
:10070000761C009800F00DF85B1E6D1E641C002D19
:1007100001D0002BF3D1002BE8D100BF204604B05C
:10072000F0BD044A904202D1CAB2026001E0CAB2EE
:100730000260704700000020084002E008C8121F55
:1007400008C1002AFAD170477047002001E001C1BA
:10075000121F002AFBD170470000F0B585B0054696
:100760008A48006804460C3406E12968081D2860A0
:100770000E78002E00D100E103942046641C8349CA
:1007800009680E5437464021304688430646012EFC
:1007900009D12A68111D2960117848B27C4909687D
:1007A0000855641CD1E0022E17D12A68111D29605A
:1007B000118808B2E107C90F002903D06108490078
:1007C000891C00E021460C46611E704A126857548D
:1007D0006F4909680853A41CB7E0042E01D0642FA8
:1007E00016D12A68111D29601068A107890F0029F8
:1007F00003D0A1088900091D00E021460C46611EB6
:10080000634A12685754614909680851241D9CE0E5
:10081000142E20D12868C01DC008C0000146083031
:1008200028600A6849681046FFF7AEFE0190A007ED
:10083000800F002803D0A0088000001D00E02046A3
:100840000446601E524909680F54504901980968CE
:100850000851241D79E0A12E24D12968081D2860A3
:10086000086801900198FFF77AFE401C00900098FC
:100870000119474800680838814209D900990819C8
:1008800000F0BFFF0490002802DA049805B0F0BD24
:100890003F4909680819009A0199FFF73CFE009842
:1008A000241852E08020304000284BD03007000F41
:1008B00001902968081D286008680090A007800F33
:1008C000002803D0A0088000001D00E02046044658
:1008D000601E2E4909680F542D4900980968085177
:1008E000241D0198401E2040002806D00198401E7B
:1008F000214681430198081800E0204604460199EA
:100900000098484300900098011921480068083871
:10091000814208D90099081900F073FF049000285B
:1009200001DA0498B2E72968081D28600868029077
:10093000174909680819009A0299FFF7ECFD009819
:10094000241802E00220C043A0E7124800680028F3
:1009500004D140203840002800D0039C0D48006896
:100960000838A04208D20A48006800F04AFF049004
:10097000002801DA049889E7F7E600BF20460C3822
:1009800002490860002081E70000142000001020C8
:100990000000182000002020000010B50423024AA7
:1009A000D9020248FFF72FFC10BD14610F4004610B
:1009B0000F400FB438B505A800906846FFF7CDFE8C
:1009C000044600200090204638BC08BC04B01847FC
:1009D00000207047000010B5002014490860144939
:1009E000086014490860022000F095FD1349086072
:1009F000012000F090FD1149086000F088FD1049C9
:100A0000088020201049088009880C22514308469C
:100A100000F057FE0D4908600B4800880C22504337
:100A2000014609480068FFF78FFD002010BD0C202B
:100A300000001C20000020200000182000001020D2
:100A400000000A200000082000000420000010B56B
:100A50008EB0002408E001AA68463021415E08A853
:100A6000007D00F03AFC641C002301AA0CA90DA82B
:100A700000F0CBFE0028EED020460EB010BD70B5C1
:100A800004460D462946204601F065F8002802DAA2
:100A90000020C04370BD0020FCE708B5034668464F
:100AA00000F0EBFF00BF009800F0D1F99842FAD3B4
:100AB00008BD00B5034600F028F800281EDD1049E7
:100AC00009684888411C0E4A1268518042000C494E
:100AD000096808318B520A4800688088401C084920
:100AE000096888800748006840880649884203D121
:100AF0000020034909684880012000BD0020FCE770
:100B0000000000200000FC1D0000054800688088EF
:100B1000044A1268D288801A81B20248401A80B210
:100B2000704700200000FC1D000010B5074907A019
:100B3000FFF7A5FF074907A0FFF7A1FF084908A095
:100B4000FFF79DFF002010BD0000B10A0000727584
:100B50006E00E10A000073746F7000000000D50A97
:100B6000000072756E6E696E670031E001E0FFF79C
:100B70006EFF174800780028F9D016480078002842
:100B800002D100F080FF08E013480078012802D16C
:100B900000F07BFF01E000F082FF13E00E480078D8
:100BA000002802D100F029FD08E00A480078012859
:100BB00002D100F04AFD01E000F05BFD00F0B5FF5E
:100BC000FFF745FF034800780028E7D10349087084
:100BD000CCE725200000262000002420000001464C
:100BE000087840B2044A10700120034A1070034A8A
:100BF00010700020704726200000252000002420CF
:100C00000000014800787047000024200000002008
:100C10000149087070472520000010B5094909A056
:100C2000FFF72DFF0B490BA0FFF729FF0D490DA082
:100C3000FFF725FF0F490FA0FFF721FF002010BD90
:100C40000000B90B00006765744672616D650000B5
:100C50000000AD0B000067657445646765730000B4
:100C60000000310D000067657454696D696E67009E
:100C70000000351900007365744564676550617242
:100C8000616D7300000010B5002823D0124B0022C4
:100C9000001F196803E0814203D80A464968002909
:100CA000F9D1002A0AD01368841A9C4204D1006842
:100CB00018181060104602E0506000E0186000292B
:100CC00007D002680B1A934203D10B68D218026056
:100CD0004968416010BD6020000010B5006800F058
:100CE00068F910BD0000F8B50078069E0009079D60
:100CF000022804D001280DD00020C043F8BD0868A8
:100D000000902D883488198810882B46224600F0E0
:100D1000F6F822E01088009037882E880D680F4979
:100D20001C880869401C086180070D49000F08589D
:100D300080470098400800900120204300F0B3FE57
:100D40000024002E09D93B4629460648009AFFF7A1
:100D500087FAED19641CB442F5D30020F8BD3020A9
:100D600000004C20000004610F40F0B58BB0054638
:100D70000E4630680A9000216846C1834183818312
:100D80000183491E01820021C1824182818228683B
:100D900009906B21C900286840180890012000F0D4
:100DA00082FE002745E000F0F2FC6B280ADA012001
:100DB000C0436946088204A800F0B9FC0020C04383
:100DC0000BB0F0BD06A800F0B2FC9E221D480899A9
:100DD000FFF7DFFA1C4A1C48006840881B49096875
:100DE00008319E2300930392019102901548089BBD
:100DF0000A9A0999FFF7FAFA0446134800684088EE
:100E000000191149096848801048006840880D4958
:100E1000884206D30D4800684088401A0B4909688B
:100E20004880094800688088001907490968888057
:100E30007F1CD02FB7D304A800F079FC0020BFE7B7
:100E4000000004610F407F0700005C2000000146A5
:100E5000024A9268501A7047000000300C4030B5CA
:100E6000254C89B06068C004FCD56068C004FCD41F
:100E700006A800F002FE6068C004FCD50698FFF7E3
:100E8000E6FF1D4D688106A800F0F7FD606880054B
:100E9000FCD560688005FCD407A800F0EEFD606812
:100EA0008005FCD50798FFF7D2FFE88007A800F07F
:100EB000E4FD60688005FCD40798FFF7C8FF28812F
:100EC0006068C004FCD40698FFF7C1FF81B2A98115
:100ED0006B890220002202930592049103902989D4
:100EE0000091019003460146EA880020FFF761FD6A
:100EF000002009B030BD00610F4030200000FFB578
:100F0000284883B0C0070C9F264800D0801C009062
:100F10004800401C00F0C7FD0698002500283ED977
:100F200005980099400002904418059881000098A7
:100F3000081801901C4845801C48059B039A00999D
:100F4000FFF7B5F91A4E70688005FCD421461648A3
:100F5000059B039AFFF7ABF970688005FCD4124E2D
:100F6000059B3046039A0199FFF7A1F93A46059B84
:100F700001990098FFF7C7F93046059B039A00993D
:100F8000FFF795F90598059B3A1820460099FFF759
:100F9000BAF90298AD1CC71906988542CAD307B0A2
:100FA000F0BD6820000000FC002004610F400061DB
:100FB0000F40F1B594B0C0491498C04C40180A9045
:100FC000E08841004218218940184B008000D21867
:100FD000C01ED21E0C900F9264200590012000F0DC
:100FE00062FD0020099001201190B54E149A9F21B6
:100FF00089003046521C0A9BFFF795F9341F606840
:101000008005FCD40A9A9F2189003046521C149B0B
:10101000FFF789F960688005FCD4119800287ED01C
:101020000EA800F02AFDA748149C01680846083065
:1010300012904D88FFF769FDFF21A731884206D243
:10104000FF200002FFF735FD0020119075E0FF2121
:101050006A001298090281526D1C01209B4EA9B2B0
:101060008646B14200D10021954D9F222B889200E7
:10107000D21A6B8800209C46AB8807935B420D9385
:10108000C043634612B25B42401C00B290424DDA4C
:101090008B4D265C2D884519655DAD1BAB4202DA90
:1010A0006545F1DB21E00126F603054635434F0097
:1010B000129E491CF55375466D1CADB2AE46824D6D
:1010C00089B2A94200D100217D4D801C2E8800B23A
:1010D000401C00B2904229DA8519655D275CED1B42
:1010E0000D9FAF42D0DB6545F2DB4E00129D491CDF
:1010F000A85375466D1CADB2AE46734D89B2A94278
:1011000000D100216E4D801C2E8800B2401C00B220
:1011100090420BDA8519655D275CED1B00E097E0D6
:10112000079FBD42B0DBAB42F0DBBCE7664800681E
:101130004180828871465118818060480088401D36
:1011400081080998814256D8149801905E48006839
:10115000044608344588FFF7D8FCFF21A7318842B0
:101160005B4804D2FFF7A5FC0020119043E0690022
:1011700060526D1C554FA8B20122B84200D1002028
:101180004F4B9F261D88B6006D1DAD087543019E0F
:101190005B880321C943761B9C465D42091D9F2342
:1011A00009B29B00994220DA019B775C5B5CDB1BF8
:1011B0009D420CDA6345F1DB4300E152401C521CB6
:1011C000424B80B292B29842E8D10020E6E7012774
:1011D000FF030B463B434700E353401C521C3A4B72
:1011E00080B292B29842D9D1EFE736490968488077
:1011F0008888801888800E98FFF729FE0F99081AB2
:101200001ED50C9944180EA800F037FC09989F21B0
:10121000401C09901498890040181490FF20000287
:10122000FFF747FC26480088401D81080998814245
:1012300002D82648FFF73DFC0E98FFF708FE201A5B
:101240000599814236DC00281FDDFFF726FC1CE0F3
:10125000FF200002FFF72DFC19480088401D81087F
:101260000998814202D81948FFF723FC19490998C7
:10127000488060688005FCD560688005FCD46068A3
:101280008005FCD560688005FCD411490998488028
:1012900009989F21401C09901498890040181490C7
:1012A0000998682800D2A0E60B48FFF702FC00204E
:1012B00015B0F0BD0590C6E70000700201003020B7
:1012C000000004610F4000200000FC1D000001FF31
:1012D000000000FC0020FFFF0000F7B58AB00746C1
:1012E00014460020089004206949086020203840F6
:1012F000002813D0A02F05D16168206800F0CFF836
:101300000890A5E0A12F05D16168206800F0D9F808
:1013100008909DE00020C0430DB0F0BD5D490988F4
:101320000B98884202DB0020C043F5E70C210B98A4
:1013300048435849096840184668002E01D1701E7C
:10134000EAE7002501E0681CC5B2A8002058002883
:10135000F9D1002D02D1B047089079E0012D03D1D9
:101360002068B047089073E0022D04D161682068BE
:10137000B04708906CE0032D04D1204607C8B04761
:10138000089065E0042D06D1211D0EC90791206843
:10139000B04708905CE0052D08D120690090211D20
:1013A0000EC907912068B047089051E0062D09D179
:1013B000616920690191009020460FC80790B047ED
:1013C000089045E0072D0DD162692169A06901925D
:1013D00000910290E368A268079261682068B047B4
:1013E000089035E0082D0DD163692269A169E06993
:1013F000019300920291039020460FC80790B047D6
:10140000089025E0092D10D1A3696269E169206A7D
:10141000029301920391049020690090211D0EC94E
:1014200007912068B047089012E00A2D10D1E369B7
:10143000A269216A606A039302920491059061692E
:1014400020690191009020460FC80790B04708908E
:1014500080203840002818D0104908980968C860D2
:101460000C230B9A5A430B4B1B68D2180821515E70
:101470003A4680239A4340231A43104600F0B1FABB
:101480000990002801D0099846E7002044E714207D
:10149000000008200000042000001020000070B5AB
:1014A00006460C46304600F084F8054621880C209C
:1014B0006843024A126880180181284670BD0420E2
:1014C0000000F8B504460D4601200C490860FFF7FE
:1014D0007FFA064600200949086001200949086092
:1014E00020880849088028780849086000200346B9
:1014F000024601210090FFF75CFA3046F8BD1C203F
:1015000000000C2000000A20000020200000012024
:101510004002704700000146012901D1044870478C
:10152000022902D1FD208000F9E70020F7E70CFC3A
:101530000020F0B505460B48504306460B4884682A
:1015400007E009488368181BB04202D90020C04355
:10155000F0BD064840890128F3D10020044F78816E
:101560000846F5E70000E01C03000050084000FCBE
:101570000020F0B505460B48504306460B488468EA
:1015800007E009488368181BB04202D90020C04315
:10159000F0BD064800890128F3D00120044F3881AE
:1015A0000846F5E70000E01C03000050084000FC7E
:1015B000002070B50546002414E00C2060430C495F
:1015C0000968085800280BD00C216143094A1268A9
:1015D00050582946FEF7CAFF002801D1204670BDA9
:1015E000601C04B2044800888442E6DB0020C0434B
:1015F000F5E7042000000820000008B50F48007837
:10160000002814D00D484078002814D10C490C480B
:10161000FFF7ABFB0C48D023FF223D3200210090A6
:101620000846FFF76CFC01200449487003E00349B9
:101630000448FFF79AFB08BD000000FC00202C20A6
:101640000000282000004000081008B50748007876
:10165000002808D00648D023FF223D320021009008
:101660000846FFF74CFC08BD000000FC00204000CD
:10167000081010B504480078002802D00348FFF78E
:1016800098FC10BD000000FC00204000081010B5C0
:1016900008A10A48FEF7F0FFFFF79DF9FFF745FAAA
:1016A000FFF7BBFA00F07FF9FFF75FFA002010BDEB
:1016B00000004D302073746172740A000000002035
:1016C0000C40F0B50B30C108C900144F0026144A75
:1016D0000FE003688B420BD38B4205D95C1A431889
:1016E000456830C3083B00E04368136002C004E073
:1016F000021D10680028ECD13046002803D138685C
:10170000002801D00020F0BD064A06481060064AB5
:10171000121AD208D20044C001203860D7E76420F2
:10172000000060200000F4270000F02B000070B5DE
:10173000044600F02CF8002822DD124909684D8883
:10174000691C104A12685180EA000E490968083184
:10175000501808222146FEF7DEFE0A4800688088FD
:10176000401C084909688880074800684088064985
:10177000884203D10020034909684880012070BDD8
:101780000020FCE700005C2000007F070000054807
:1017900000688088044A1268D288801A81B20248A0
:1017A000401A80B270475C2000007F07000070B5CF
:1017B00012480088044620340C2161430846FFF794
:1017C00080FF05460C20604301462846FEF7BCFE1C
:1017D0000A4800880C214843024608480168284608
:1017E000FEF799FE06480068FFF74DFA04480560C9
:1017F00002490C80002070BD000008200000042079
:10180000000001460420C0437047FFB583B017466F
:10181000069A0499039800F08EF802900298002826
:1018200002D0029807B0F0BD03980078402108402C
:1018300000280AD03E4800680C30386004213B483C
:101840000068C1721024012501E00C24002563E02A
:101850000A2D02D10020C043E4E72046641C33492E
:101860000968085C019001980607360F80210198ED
:101870000840002814D1701E2040002804D0701E9B
:1018800021468143881900E0204604462848006824
:101890000019A900785001980007000F041939E0D9
:1018A0000198A1280CD1214800680019A90078509E
:1018B0001F4909680819FEF752FE401C041929E067
:1018C000A007800F002803D0A0088000001D00E0C2
:1018D00020460446164800680059009014480068E5
:1018E00002192946681CC5B288003A50241D701E92
:1018F0002040002804D0701E21468143881900E052
:10190000204604460A4800680019A900785000984B
:1019100070430419681CC5B2064800680C30844244
:1019200096D30020A900785000BF7BE7000010206C
:10193000000014200000F7B505460E461CE0029892
:10194000002802D0FF20F53000E0002002464021B0
:1019500012480068FFF7EDFD041E01DA2046FEBDC7
:10196000402C02DA0020C043F9E70B480068076802
:101970000B48874200D100E0E1E700BF074800685C
:101980000079287005480068C088308003480068E6
:101990008068034908600020E1E7102000005555E9
:1019A000AAAA1420000010B5034903A0FFF767F8A6
:1019B000002010BD00003D0C0000676574524C53C0
:1019C0004672616D650070B505460E463146284683
:1019D00000F021F80446002C01D0204670BD002004
:1019E000FCE7F8B506460F46002508E039463046C4
:1019F000FFF7E9FF0446002C00D102E06D1C032D27
:101A0000F4DB00BF002C02DA002001490860204608
:101A1000F8BD0C20000070B504460D460E480E4976
:101A2000096808600D48006804710B480068C580AB
:101A30000B480068094909688860FF22F532402197
:101A400006480068FFF795FD061E01DA304670BDB6
:101A50000020FCE700005555AAAA10200000142021
:101A60000000038804480380098841801188818030
:101A700000207047000030200000014989680160A3
:101A8000704700300C407047000001200349087087
:101A9000002048808880C880704700FC002000B586
:101AA000FFF7F3FF00BDF8B5054600201A4C009083
:101AB0006068C00405D56846FFF7DFFF6068C004B2
:101AC000F9D46068C004FCD50098134F002802D0F8
:101AD000FFF7BDF9F880114E7069FFF7B8F90009FA
:101AE00010490090884212D8B8800E48FFF7C5FF11
:101AF0000022002D08D960688005FCD56168880542
:101B0000FCD4521CAA42F6D30120B061F8BD0448AF
:101B10000090E9E7000000610F4000FC0020302049
:101B20000000FFFF00004420000070B50748446833
:101B300001200003064D044005D0A869002802D109
:101B40000448FFF79AFFAC6170BD00610F40302080
:101B500000004420000070B505460E46002D01D15E
:101B6000401E70BD2846FFF724FD0446002C19DAFC
:101B7000002401E0601C04B211480088844206DAA7
:101B80000C2060430F49096808580028F2D10B481F
:101B90000088844206D1FFF70AFE31462846FFF747
:101BA000DAFFDEE70C206043064909680D500C207F
:101BB000604303490968401846602046D1E7082081
:101BC000000004200000B81A000000200000680097
:101BD00000000C060000201B000068200000880F99
:101BE00000001C06000000C00020000000000000F3
:101BF00000000000000000000000000000000000E5
:101C0000000000000000000000000000FF0088024B
:101C1000091000100910040014000C00000000005E
:101C200000000000000000000000000000000000B4
:101C300000003F0200004302000049020000510280
:101C4000000000C0002000000000000000000000B4
:101C50007CA5011051F800100100000000000000F8
:101C60000000000028A8011070A5011035F8001030
:101C7000000000000000000000000000E0A50110CE
:101C8000C4A3011089F4001001000000000000004E
:101C900000000000E8A90110B8A30110DDF3001056
:101CA0000000000000000000000000003CA6011041
:101CB000F4A30110EDF40010040000000000000087
:101CC00000000000C4AA0110E8A3011039F40010BC
:101CD000000000000000000000000000ACA50110A2
:101CE000DCA3011055F4001001000000000000000A
:101CF0000000000058AA0110D0A30110D1F3001079
:101D000000000000000000000000000000A601101C
:101D10000CA40110C5F40010040000000000000035
:101D20000000000020AB011000A40110E9F3001036
:101D300000000000000000000000000078A6011074
:101D40001CAE01100507011001000000000000009A
:101D500000000000ECA8011008AE0110E10601101F
:101D6000000000000000000000000000DCA70110DF
:101D700004A801107109011001000000000000001A
:101D80000000000088A8011058A50110450D0110A1
:101D90000100000000000000000000008CA90110FC
:101DA00008AE0110E1060110000000000000000074
:101DB00000000000DCA7011018A80110F1050110B7
:101DC00001000000000000000000000008A3011056
:101DD00088A50110ED0601100102020202000000B8
:101DE0000000000018A40110ACA301109DF8001021
:101DF000020100000000000000000000B0AC011073
:101E000090A30110CDFB00100202000000000000B2
:101E1000000000001CAC011070A30110E5FB0010D5
:101E200002040000000000000000000088AB011068
:101E3000A0A3011041F80010020000000000000003
:101E4000000000007CA7011080A30110ADFB001072
:101E50000200000000000000000000001CA70110AC
:101E600060A30110BDFB0010020000000000000094
:101E700000000000BCA6011044A50110A10A011039
:101E800000000000000000000000000044AD011050
:101E900098A50110290601100000000000000000B4
:101EA00000000000A8AD01100000000000000000CC
:101EB0000000000000000000000000000000000022
:101EC00005004036D002000005004236E830000030
:101ED00005004436910A0000050046366BB000004C
:101EE000050048367102000005004A36B0000000C7
:101EF00005004C364AEF000005004E365136000012
:101F0000050050368BE40000050052363113000006
:101F10000500543650010000050056362C20000004
:101F200005005836F102000005005A364E900000B8
:101F300005005C361073000005005E36F0000000FE
:101F4000050060366A9600000500623691160000B2
:101F500005006436EB0F000005006636B03D00005A
:101F600005008036CB140000050082360DB9000054
:101F700005008436CFE80000050086362F0A0000F1
:101F8000050088369070000005008A362B0D000091
:101F900005008C36CCE7000005008E362FEC0000E3
:101FA00005009036CF01000005009236104B00006E
:101FB000050094360C590000050096366CDA0000D6
:101FC000050098367084000005009A364B14000016
:101FD00005009C36D003000005009E36EC4D000045
:101FE0000500A0360DA000000500A23630B00000AC
:101FF0000500A4362E2600000500A636701A000043
:102000000500C036312A00000500C236C842000073
:102010000500C436B24700000500C6361130000086
:102020000500C83612EF00000500CA361146000050
:102030000500CC364D7B00000500CE36732900002C
:102040000500D036F07300000500D236B3F1000071
:102050000500D436511900000500D6364E1C00008C
:102060000500D836B25100000500DA3650420000B3
:102070000500DC36B39300000500DE3611270000B2
:102080000500E0366C3600000500E236122B000039
:102090000500E436111100000500E63612CD0000FF
:1020A00005000037EFA40000050002376EA1000014
:1020B000050004378C1C000005000637EE03000005
:1020C0000500083772C4000005000A37EEFB000067
:1020D00005000C372FA6000005000E37D182000046
:1020E00005001037CE060000050012372FE3000070
:1020F000050014372BC40000050016372E8D000094
:10210000050018379188000005001A37AF5D000000
:1021100005001C37EE76000005001E37EF82000038
:1021200005002037ED45000005002237D1AB000047
:1021300005002437CFFF0000050026376F8300001D
:1021400005004037D07E00000500423751240000D2
:1021500005004437CFBC00000500463771D10000B0
:10216000050048373489000005004A37B1520000A5
:1021700005004C37901D000005004E37B2FC0000F2
:1021800005005037EF6100000500523773EE000084
:1021900005005437D127000005005637AE06000071
:1021A0000500583711F0000005005A37EF550000C0
:1021B00005005C3712F1000005005E375108000091
:1021C000050060375122000005006237B21300009D
:1021D0000500643710F4000005006637B4BD000048
:1021E000050084378602000005008237CE0100001A
:1021F0000500C037A67C00000500C237A92E0000EC
:102200000500C437E84400000500C637C83C00009C
:1022100005008E0900000000050060C9B80B000031
:10222000050062C9E17E0000050064C9DC7F000092
:10223000050066C9BC7E0000050068C9E17F00009A
:1022400005006AC99A10000005006CC920800000D2
:1022500005006EC9AF800000050070C95E800000F7
:10226000050072C962800000050074C94C1D0000A1
:10227000050076C9C9820000050078C9B78500004D
:1022800005007AC94083000005007CC9FB8200007C
:1022900005005EC90300000005008E090010000063
:1022A00004007EC901000000050080C93002000062
:1022B000050082C90007000001008813000000002B
:1022C00007003C01D000000005006A317082000068
:1022D00005006C31708200000500D03E052300002F
:1022E0000500D23ECF77000005006E31028200006B
:1022F00005008031FF8700000500D43080600000B9
:10230000050002A8080000000500143E39FF000087
:10231000050082090100000005008A090050000044
:10232000050000D0CF700000050002D0FFFF0000C4
:10233000050004D0D4C50000050006D03A90000086
:10234000050008D04421000005000AD0000C000060
:1023500005000CD08621000005000ED0F30F000010
:10236000050010D044B80000050012D048B90000A4
:10237000050014D082E00000050016D0CC2000003B
:10238000050018D0E280000005001AD0CC21000022
:1023900005001CD0A280000005001ED0CC2100004A
:1023A000050020D0E2800000050022D004F40000E7
:1023B000050024D001D80000050026D003F000005D
:1023C000050028D000D8000005002AD0E07E0000DB
:1023D00005002CD0F1C0000005002ED0BA08000086
:1023E000050030D000060000050032D0A1C1000079
:1023F000050034D0CF760000050036D0FFFF000086
:10240000050038D030C1000005003AD0046E00004D
:1024100005003CD040C0000005003ED0CF71000058
:10242000050040D0FFFF0000050042D090C700002B
:10243000050044D003810000050046D0CF7700009E
:10244000050048D0FFFF000005004AD0C0C70000CB
:1024500005004CD001E0000005004ED003A10000B3
:10246000050050D000D80000050052D06A0C0000D2
:10247000050054D0E0040000050056D09EB80000CE
:10248000050058D00875000005005AD01C8E0000C9
:1024900005005CD00908000005005ED09101000035
:1024A000050060D001D80000050062D01DAE00001C
:1024B000050064D080E50000050066D0CA20000059
:1024C000050068D02200000005006AD0CF2000007F
:1024D00005006CD02205000005006ED05C0C0000E9
:1024E000050070D0E2040000050072D0CA2100008F
:1024F000050074D062000000050076D080E5000081
:10250000050078D001D9000005007AD0C07900001C
:1025100005007CD000D8000005007ED0E60B00004E
:10252000050080D0E0040000050082D09EB80000C5
:10253000050084D0CF700000050086D0FFFF0000AA
:10254000050088D0D4C8000005008AD002900000A1
:1025500005008CD05708000005008ED05E020000F8
:10256000050090D0DCFF0000050092D080E0000064
:10257000050094D0CC250000050096D022900000E4
:10258000050098D025F2000005009AD00017000041
:1025900005009CD08A10000005009ED0CF7300007B
:1025A0000500A0D000FF00000500A2D0743100009B
:1025B0000500A4D0079300000500A6D0042A00005F
:1025C0000500A8D03E1000000500AAD02893000006
:1025D0000500ACD0422900000500AED040710000DB
:1025E0000500B0D0042A00000500B2D07E10000023
:1025F0000500B4D0499300000500B6D04229000080
:102600000500B8D0417100000500BAD0042A0000CE
:102610000500BCD0BE1000000500BED04A930000EB
:102620000500C0D0422900000500C2D04B71000057
:102630000500C4D0042A00000500C6D0BE1000006A
:102640000500C8D00C1300000500CAD00A01000024
:102650000500CCD0422900000500CED04271000018
:102660000500D0D0502200000500D2D0CA130000CF
:102670000500D4D00C1B00000500D6D08402000059
:102680000500D8D007B300000500DAD028B3000059
:102690000500DCD0121B00000500DED0C4020000E3
:1026A0000500E0D04AB300000500E2D088ED00004C
:1026B0000500E4D0CF7100000500E6D000FF000067
:1026C0000500E8D0743100000500EAD00691000052
:1026D0000500ECD08FB800000500EED006B1000078
:1026E0000500F0D00A2100000500F2D04083000070
:1026F0000500F4D000C000000500F6D0CA2100009B
:102700000500F8D0620000000500FAD0F0200000BB
:102710000500FCD0400000000500FED0020B0000C8
:10272000050000D120030000050002D101D90000FE
:10273000050004D1F1070000050006D1E005000006
:10274000050008D1A1C0000005000AD1E078000012
:1027500005000CD1F1C0000005000ED1CF710000C2
:10276000050010D1FFFF0000050012D1C0C7000016
:10277000050014D140D80000050016D100A90000C2
:10278000050018D1CF71000005001AD1FFFF00002D
:1027900005001CD12CD0000005001ED11ED8000061
:1027A000050020D15A0A0000050022D1E0040000F3
:1027B000050024D100DA0000050026D100D8000071
:1027C000050028D1D1C0000005002AD1E07E00001C
:1027D00005008E0900000000050000E00C0100006B
:1027E000050002E002020000060004E002020341CC
:1027F0000300000000000000050082090100000045
:1028000005008A092C51000005002CD1CF70000072
:1028100005002ED1FFFF0000050030D1D4C5000017
:10282000050032D13A900000050034D14421000067
:10283000050036D1000C0000050038D186210000CB
:1028400005003AD1F30F000005003CD144B8000068
:1028500005003ED12F260000050040D108F0000001
:10286000050042D148B90000050044D1CC21000048
:10287000050046D121800000050048D101D80000A4
:1028800005004AD103F2000005004CD100D8000039
:1028900005004ED1E07E0000050050D1F1C00000DF
:1028A000050052D1CF710000050054D1FFFF000098
:1028B000050056D110C60000050058D10E91000049
:1028C00005005AD18C20000005005CD11480000066
:1028D00005005ED118F40000050060D10F910000E2
:1028E000050062D18C200000050064D10F8000003B
:1028F000050066D114F40000050068D116910000AF
:1029000005006AD18C20000005006CD10A8000000F
:1029100005006ED110F40000050070D11791000081
:10292000050072D18C200000050074D107880000DA
:10293000050076D10CF40000050078D11891000054
:1029400005007AD18620000005007CD1F30F00003D
:1029500005007ED148B80000050080D10D080000B8
:10296000050082D190000000050084D1EAFF00003C
:10297000050086D181E00000050088D101D8000063
:1029800005008AD103F2000005008CD100D80000B8
:1029900005008ED1D1C00000050090D1E07E00007E
:1029A000050092D1E0780000050094D1F1C000004C
:1029B000050096D1CF710000050098D1FFFF0000FF
:1029C00005009AD110C6000005009CD10E910000B0
:1029D00005009ED18C2000000500A0D10A800000D7
:1029E0000500A2D118F400000500A4D10F91000049
:1029F0000500A6D18C2000000500A8D107880000A2
:102A00000500AAD114F400000500ACD11691000015
:102A10000500AED18C2000000500B0D10A80000076
:102A20000500B2D110F400000500B4D117910000E8
:102A30000500B6D18C2000000500B8D10788000041
:102A40000500BAD10CF400000500BCD118910000BB
:102A50000500BED1862000000500C0D1F30F0000A4
:102A60000500C2D148B800000500C4D10D0800001F
:102A70000500C6D1900000000500C8D1D9FF0000B4
:102A80000500CAD180E000000500CCD101D80000CB
:102A90000500CED103F200000500D0D100D800001F
:102AA0000500D2D1DFF100000500D4D14090000034
:102AB0000500D6D1CF7100000500D8D1FFFF00007E
:102AC0000500DAD1D4C500000500DCD15AB1000000
:102AD0000500DED1419000000500E0D1CF73000079
:102AE0000500E2D1FFFF00000500E4D1D0C70000DF
:102AF0000500E6D140B100000500E8D14290000099
:102B00000500EAD141B100000500ECD1439000007E
:102B10000500EED142B100000500F0D14490000064
:102B20000500F2D143B100000500F4D1459000004A
:102B30000500F6D147B100000500F8D1469000002D
:102B40000500FAD148B100000500FCD14790000013
:102B50000500FED14BB10000050000D248900000F6
:102B6000050002D24CB10000050004D249900000DB
:102B7000050006D258190000050008D284000000A4
:102B800005000AD24A90000005000CD25A19000034
:102B900005000ED284000000050010D25688000007
:102BA000050012D2361B0000050014D282800000FE
:102BB000050016D257880000050018D2371B000008
:102BC00005001AD28280000005001CD24C90000043
:102BD00005001ED2A7190000050020D29C000000AD
:102BE000050022D21A880000050024D2E07F0000F0
:102BF000050026D2541B0000050028D202800000E8
:102C000005002AD2E078000005002CD2CF71000028
:102C100005002ED2FFFF0000050030D250C3000097
:102C2000050032D228D80000050034D20BA90000DC
:102C3000050036D200810000050038D2C501000031
:102C400005003AD22003000005003CD200D9000064
:102C500005003ED2E0780000050040D20A220000C4
:102C6000050042D2801F0000050044D2FFFF000093
:102C7000050046D2E0D40000050048D2F1C00000B3
:102C800005004AD21108000005004CD25100000096
:102C900005004ED240220000050050D20012000074
:102CA000050052D2E1FF0000050054D201D8000017
:102CB000050056D206F00000050058D24022000060
:102CC00005005AD20019000005005CD2DEFF0000AA
:102CD00005005ED202D80000050060D2051A00008F
:102CE000050062D202100000050064D2F2FF00006D
:102CF000050066D295F10000050068D2F1C0000021
:102D000005006AD27E0E000005006CD2C0050000EE
:102D100005006ED2CF750000050070D2FFFF0000E5
:102D2000050072D24CC80000050074D20295000064
:102D3000050076D2CF770000050078D2FFFF0000B3
:102D400005007AD244C3000005007CD24420000074
:102D500005007ED28E000000050080D2A1B80000E0
:102D6000050082D226090000050084D2E00300009D
:102D7000050086D202B50000050088D20295000049
:102D800005008AD22E95000005008CD2057E000039
:102D900005008ED2C2B50000050090D2CF700000B1
:102DA000050092D2FFFF0000050094D210C600007B
:102DB000050096D29A090000050098D2A0040000F0
:102DC00005009AD226B0000005009CD2020E000039
:102DD00005009ED2600500000500A0D200DE0000C4
:102DE0000500A2D2120A00000500A4D220030000B0
:102DF0000500A6D2C4B700000500A8D2360B00001B
:102E00000500AAD2A00300000500ACD2C9700000E2
:102E10000500AED2029500000500B0D20876000091
:102E20000500B2D2A8B800000500B4D202B5000077
:102E30000500B6D2CF7000000500B8D20000000037
:102E40000500BAD2365500000500BCD260780000FB
:102E50000500BED2862600000500C0D2FB1F000080
:102E60000500C2D2029500000500C4D2C57800005A
:102E70000500C6D2310600000500C8D2E0050000FA
:102E80000500CAD202B500000500CCD2CF72000006
:102E90000500CED2FFFF00000500D0D2D4C500004F
:102EA0000500D2D23A9200000500D4D2CF730000C0
:102EB0000500D6D2FFFF00000500D8D2D0C7000021
:102EC0000500DAD220B000000500DCD2209200001C
:102ED0000500DED221B000000500E0D22192000002
:102EE0000500E2D222B000000500E4D222920000E8
:102EF0000500E6D223B000000500E8D223920000CE
:102F00000500EAD224B000000500ECD227920000B0
:102F10000500EED225B000000500F0D22892000096
:102F20000500F2D226B000000500F4D22B9200007A
:102F30000500F6D227B000000500F8D22C92000060
:102F40000500FAD228B000000500FCD2581200009B
:102F50000500FED201010000050000D329B00000E9
:102F6000050002D35A120000050004D3010100003D
:102F7000050006D32AB00000050008D33613000070
:102F800005000AD38180000005000CD336A800009C
:102F900005000ED337130000050010D38180000018
:102FA000050012D337A80000050014D3A7120000B3
:102FB000050016D301070000050018D32CB000004F
:102FC00005001AD35413000005001CD381800000B3
:102FD00005001ED3E07F0000050020D33AA80000C2
:102FE000050022D3E0780000050024D3F1C00000E2
:102FF000050026D3C20D0000050028D3C00500003F
:1030000005002AD30876000005002CD3BB09000078
:1030100005002ED310000000050030D3CF7500004E
:10302000050032D3FFFF0000050034D3E0D40000D8
:10303000050036D3218D0000050038D3008D000037
:1030400005003AD35321000005003CD303000000E3
:1030500005003ED3C0B80000050040D3458D0000F8
:10306000050042D3230B0000050044D300000000FC
:10307000050046D38FEA0000050048D3150900007B
:1030800005004AD31E00000005004CD381FF00005C
:1030900005004ED308E80000050050D3402500008D
:1030A000050052D300190000050054D3DEFF0000D4
:1030B000050056D3008D0000050058D380B80000ED
:1030C00005005AD304F0000005005CD3008D000019
:1030D00005005ED3A0B80000050060D300AD00007D
:1030E000050062D3058D0000050064D381E0000077
:1030F000050066D3CC200000050068D3A280000044
:1031000005006AD300DF000005006CD30AF400005C
:1031100005006ED3CF710000050070D3FFFF0000E3
:10312000050072D34CC80000050074D30291000062
:10313000050076D308770000050078D3A6B8000014
:1031400005007AD38627000005007CD3FE1F00000F
:1031500005007ED302B10000050080D3420B0000C1
:10316000050082D380010000050084D33E0E0000DC
:10317000050086D380010000050088D34A0F0000B7
:1031800005008AD36001000005008CD3C9700000DF
:1031900005008ED3058D0000050090D381E000006E
:1031A000050092D3CC200000050094D3A28000003B
:1031B000050096D329F40000050098D3CF760000CF
:1031C00005009AD3FFFF000005009CD34CC8000007
:1031D00005009ED32D0800000500A0D3510000007B
:1031E0000500A2D3CF7000000500A4D3FFFF0000AC
:1031F0000500A6D30CC900000500A8D3058800006F
:103200000500AAD3B60900000500ACD36003000096
:103210000500AED308D900000500B0D39920000006
:103220000500B2D3020800000500B4D334960000B4
:103230000500B6D303B500000500B8D3027900003D
:103240000500BAD3231500000500BCD38010000090
:103250000500BED334B600000500C0D301E0000075
:103260000500C2D3231D00000500C4D302100000D6
:103270000500C6D30BF000000500C8D3349600004B
:103280000500CAD3039500000500CCD338600000C8
:103290000500CED314B600000500D0D33F150000C2
:1032A0000500D2D3801000000500D4D301E0000057
:1032B0000500D6D33F1D00000500D8D30210000042
:1032C0000500DAD3A4FF00000500DCD3029600005D
:1032D0000500DED3057F00000500E0D300D8000024
:1032E0000500E2D3E2B600000500E4D305AD00001E
:1032F0000500E6D3110500000500E8D3E005000055
:103300000500EAD300D800000500ECD3F1C00000AE
:103310000500EED3FE0C00000500F0D3C005000050
:103320000500F2D3960A00000500F4D3A0050000C2
:103330000500F6D3087600000500F8D3220C000043
:103340000500FAD3400200000500FCD380E0000035
:103350000500FED3CA200000050000D4820F000043
:10336000050002D400000000050004D40B19000081
:10337000050006D4600C0000050008D4A20500007A
:1033800005000AD4CA21000005000CD42200000068
:1033900005000ED4560C0000050010D440020000B9
:1033A000050012D406E80000050014D40E0E00003B
:1033B000050016D420020000050018D4C9700000D2
:1033C00005001AD448F0000005001CD4960800003F
:1033D00005001ED440040000050020D4960E000015
:1033E000050022D400040000050024D46609000072
:1033F000050026D480030000050028D4CF75000006
:1034000005002AD4FFFF000005002CD4E0D4000002
:1034100005002ED4008D0000050030D44D080000BA
:10342000050032D41E000000050034D447FF000020
:10343000050036D40D080000050038D45000000007
:1034400005003AD457FF000005003CD441080000B5
:1034500005003ED451000000050040D4048D00005A
:10346000050042D421950000050044D464E000002A
:10347000050046D40C790000050048D42F700000E8
:1034800005004AD4E20C000005004CD4E005000021
:1034900005004ED464D90000050050D4CF7200005E
:1034A000050052D4FFFF0000050054D400C70000FF
:1034B000050056D435920000050058D411080000CC
:1034C00005005AD44300000005005CD43DFF000015
:1034D00005005ED40D080000050060D45100000016
:1034E000050062D401D80000050064D477FF000015
:1034F000050066D425F00000050068D401950000A1
:1035000005006AD43592000005006CD41109000052
:1035100005006ED403000000050070D449FF0000D0
:10352000050072D40D080000050074D4510000009D
:10353000050076D400D80000050078D472FF0000A2
:1035400005007AD41BF0000005007CD4860800003A
:1035500005007ED4E0030000050080D401D80000FF
:10356000050082D4F60E0000050084D4C0030000DC
:10357000050086D4520F0000050088D440030000E7
:1035800005008AD4BA0D000005008CD400020000AA
:1035900005008ED4F60A0000050090D44004000017
:1035A000050092D4220C0000050094D40004000011
:1035B000050096D4720D0000050098D44004000068
:1035C00005009AD4C20D000005009CD40002000042
:1035D00005009ED4720900000500A0D4400400003C
:1035E0000500A2D43A0D00000500A4D4200200007A
:1035F0000500A6D420D800000500A8D4FA0B0000CE
:103600000500AAD4600200000500ACD4C970000017
:103610000500AED4510400000500B0D4C005000080
:103620000500B2D4E07800000500B4D400D9000051
:103630000500B6D40AF000000500B8D4CF70000031
:103640000500BAD4FFFF00000500BCD420D500005F
:103650000500BED4357800000500C0D441800000CC
:103660000500C2D4008000000500C4D402E10000BF
:103670000500C6D440A000000500C8D4F109000030
:103680000500CAD4148100000500CCD4CF7100001D
:103690000500CED4FFFF00000500D0D4E0D4000028
:1036A0000500D2D4CF7000000500D4D4FFFF000085
:1036B0000500D6D494C500000500D8D43AB0000067
:1036C0000500DAD4E07F00000500DCD400D800005B
:1036D0000500DED4000000000500E0D4000000007A
:1036E0000500E2D4000500000500E4D40005000058
:1036F0000500E6D4000200000500E8D43003000015
:103700000500EAD4000000000500ECD40000000031
:103710000500EED4CD0300000500F0D40D05000037
:103720000500F2D4C50100000500F4D4B303000085
:103730000500F6D4E00000000500F8D4E301000025
:103740000500FAD4800200000500FCD4E00100006E
:103750000500FED409010000050000D5800000002E
:10376000050002D500050000050004D5000000009A
:10377000050006D500000000050008D50000000087
:1037800005000AD50000000005000CD5000000006F
:1037900005000ED500000000050010D50000000057
:1037A000050012D500000000050014D5000000003F
:1037B000050016D500000000050018D50000000027
:1037C00005001AD50000000005001CD5000000000F
:1037D00005001ED500000000050020D5FFFF0000F9
:1037E000050022D5B4C90000050024D5FFFF000064
:1037F000050026D524D30000050028D5FFFF0000D2
:1038000005002AD534CA000005002CD5FFFF0000B2
:1038100005002ED5ECD3000005008E090000000045
:10382000050000E0B4040000050002E0020300000F
:10383000060004E002020341030000000000000053
:1038400005008E0900000000050092C8F501000087
:10385000050094C885FF0000050096C885FF00009C
:10386000050098C885FF000005009AC82A010000DD
:1038700005009CC85100000005009EC898FF00008C
:103880000500A0C8B4FE00000500A2C8B4020000F4
:103890000500C8C8740000000500CAC81E01000069
:1038A0000500A4C8260200000500A6C838FF0000D5
:1038B0000500A8C8A2FF00000500AAC88DFF0000EF
:1038C0000500ACC8450100000500AEC82E00000090
:1038D0000500B0C8CBFF00000500B2C817FF00000C
:1038E0000500B4C81E0200000500CCC89500000009
:1038F0000500CEC8000100000500B6C81E02000089
:103900000500B8C82DFF00000500BAC8B5FF0000CB
:103910000500BCC89CFF00000500BEC88301000074
:103920000500C0C8E0FF00000500C2C8F4FF0000A9
:103930000500C4C878FF00000500C6C89401000057
:103940000500D0C8B30000000500D2C88D000000FB
:103950000500D4C8C40900000500D6C8670D0000E2
:103960000500D8C8641900000500ECC8C4090000AF
:103970000500EEC8641900000400F2C8030000004E
:103980000400F3C8020000000500F4C800F80000BD
:103990000500F6C800A800000500F8C800540000A3
:1039A0000500FAC8801B00000500FCC8C00D00001F
:1039B0000500FEC800000000050000C9000000006E
:1039C000050002C900000000050004C93000000025
:1039D000050006C92A000000050026C920000000D5
:1039E000050028C99A000000050046C970000000C3
:1039F000050048C9F3000000050052C9200000007E
:103A0000050054C99A00000004002AC98000000083
:103A100004002BC94B00000004002CC9000000006A
:103A200004002DC9FF00000004002EC93C00000066
:103A300004002FC902000000040030C90600000085
:103A4000040031C964000000040032C90100000014
:103A5000040033C90C000000040034C93C0000001D
:103A6000040035C93C000000040036C93C000000D9
:103A7000040037C90F000000040038C964000000CA
:103A8000040039C96400000004003AC96400000061
:103A900004003BC93200000005003CC920000000C2
:103AA00005003EC99A000000050040C996000000CC
:103AB000040042C938000000040043C9300000007F
:103AC000040044C950000000040045C9190000006A
:103AD00005004AC93002000005004CC91000000072
:103AE00005004EC9CD010000040050C905000000CA
:103AF000040051C94000000004007BC81B00000006
:103B0000050090C88000000005007CC85A00000035
:103B100004002AB40500000004000AA820000000E8
:103B2000050002A808000000040008C90100000008
:103B3000040079C801000000040009C90200000067
:103B400004000AA81800000004000BA818000000D8
:103B5000040016AC18000000040007BC02000000BE
:103B600005001A303402000005007CC85A0000002D
:103B7000040000CC08000000050084C9008000009B
:103B800005001E00550600000200000000000000B5
:103B90000000000000000000C83B001400000010FE
:103BA00034BE0100A0000014FCF901140000002044
:103BB000200300004400001468FA011420030020D0
:103BC000E87A0000BC000014087E0020D900001430
:103BD000E9000014EB000014ED000014EF000014E5
:103BE000F10000145A5A5A5A000000000000000068
:103BF00000000000F3000014F500001400000000B5
:103C0000F7000014F9000014FB0000144DDE001052
:103C1000FB000014FB000014FB000014FB00001468
:103C2000FB000014FB0000143DE50010FB00001435
:103C3000FB000014FB000014FB00001491DF0010D7
:103C4000FB0000149FB50010FB000014FB000014E3
:103C5000F71B0010FB000014FB000014FB00001415
:103C6000FB000014CB360010813A0010FB0000145A
:103C7000FB000014FB000014FB000014FB00001408
:103C8000FB000014FB000014FB000014FB000014F8
:103C9000FB000014FB000014FB000014FB000014E8
:103CA000FB000014FB000014FB000014FB000014D8
:103CB000FB000014FB00001400000000FB000014D7
:103CC000FB000014FB00001400000000FB000014C7
:103CD000FB000014FB000014FB0000146E290CF024
:103CE000108270290CF07785662916F04E856529BB
:103CF00016F04B85672916F048856129AFF30080DF
:103D000003681B0A28BF41F0800169290BF0568423
:103D100064290BF0538475290BF050846F290CF043
:103D2000048578290CF04385E9290CF09F84E42967
:103D30000CF09C84F5290CF09984EF290CF0018596
:103D4000F8290CF042850368DB0928BF41F08001A7
:103D500063290CF0208473290CF02584E3290CF0EE
:103D60004186F3290CF04686002070471FB516F0F7
:103D700002FD9DE803000CF0F1F80CF081FD040059
:103D80000020002115F000FB401C60600020002195
:103D900015F0E4FAE0600CF099F81FBD10B50020B2
:103DA0000CF02FFD10BD0CF0FAFE1146FFF7DEFF00
:103DB00003F041FD0CF02EFF03B4FFF7EFFF03BC4F
:103DC0000CF054FD3849016001210171002141715D
:103DD000704710B5082012F043FF08B1FFF7F2FF5B
:103DE0003249086010BD0171704710B50223F022FE
:103DF0000321012014F000FA2D48042181620902F8
:103E0000C0F818122B4908204860002010BD10B5DA
:103E10002849002048600523F0220321012014F0E6
:103E2000EBF9002010BD70B505462348002211466D
:103E3000006805F0CBFA04461E4A1D4E4CB32879A3
:103E400060B1A1886088091A01EBD17100EB6100B3
:103E500000044FF49E71B0FBF1F00CE02189E08882
:103E6000091A01EBD17100EB6100C0F1D000000430
:103E7000D021B0FBF1F04FF6C071084010606879B6
:103E800010B9642014F008F94FF48060C6F81402E9
:103E900003E00020C6F8140210600CB1012000E01D
:103EA00000206871002070BDCC7E01100000002051
:103EB0000010104000100E401400002038B54D4D89
:103EC00000246C706846009410F0C8FD2C7038BD5A
:103ED00038B50446072C0DD800200090684610F035
:103EE000BDFD4EF6602014F0D7F8434800EB840087
:103EF00010F0B4FD38BD2DE9F8430E4600243E49CC
:103F0000A0464EF6602701EB80050EE06846CDF82E
:103F1000008010F0A3FD384614F0BEF8284610F0DB
:103F20009DFD384614F0B8F8641CB442EEDBBDE8E1
:103F3000F8832DE9F04106460D46012E02D80020F7
:103F4000BDE8F08101272B4C05E0012A14D0022A9C
:103F50002ED0FFF7B3FF13F085FF2278002AF4D1AB
:103F60002448001D14F06EF92878401CC0B260701F
:103F70002770FFF7ADFFEEE748B11E48001D14F0B3
:103F800061F96078FFF7A4FF02202070E3E7606822
:103F900014F0E8F819498842DDD92878401CC0B2ED
:103FA00060700421FFF7A7FFFFF788FF0020C7E735
:103FB000A8B1606814F0D6F811498842CBD90D48F1
:103FC000001D14F03FF96078401CC0B26070711C95
:103FD000884200D167706078FFF77AFFBBE76078AE
:103FE000411E29700421FFF786FFFFF767FF0120BC
:103FF000A6E7000004000020706C011060E31600CA
:1040000040420F0030B58BB00124FE4D2246FEA188
:1040100002A80BF093FA002301AA0AA902A810F043
:104020002AFE00280EDBE1B2019AA86805F0A5FF80
:10403000641C072CEADDA86805F0B4FF686806F088
:104040009FF800200BB030BD10B50346ED4C1A7838
:10405000A068532A02D04D2A09D00CE09A7A303A4F
:10406000D2B291ED000A114606F009F803E091ED95
:10407000000A05F0D1FB01F0EEFA002806D0A06896
:1040800005F090FFBDE8104001F0EEBA10BDF8B5A4
:1040900006460C46DFA130460BF0D4FED94D002871
:1040A0002CD0DFA130460BF0CDFE00282CD0E3A1B0
:1040B00030460BF0C7FE00282CD0E4A130460BF0B0
:1040C000C1FE00282CD0E5A130460BF0BBFE68B342
:1040D000E9A130460BF0B6FE70B3EBA130460BF011
:1040E000B1FE80B3ECA130460BF0ACFE002829D124
:1040F0002188A868BDE8F84003F0BCBE2188A86804
:10410000BDE8F84005F024BA2188A868BDE8F84069
:1041100005F027BA2168A868BDE8F84005F024BA80
:104120002188A868BDE8F84005F024BA2168A8688D
:10413000BDE8F84005F0ABBF208868800090684675
:1041400010F01AFAF8BDFFE72178A868BDE8F8403A
:1041500003F094BE2DE9F04F2DED028BBBB030A8DB
:1041600011F0B7F80021D2A000F009FE04460021AA
:10417000D6A000F004FE19344FF0010909FA04F149
:10418000193009FA00F001434FF07E478F430124B4
:1041900000250DF1C00A4FF0200B9FEDD08B47F4A6
:1041A00080703A90974E47F001004FF01408399014
:1041B000224695A128A80BF0C1F92246C9A10FA853
:1041C0000BF0BCF9CDE901BA812000900FAB0022C1
:1041D000039528A8399910F0B7FC2246C6A128A853
:1041E0000BF0ACF92246C9490FA80BF0A7F90495CA
:1041F0008DED028B0FAB41F28832CDF8008028A8FC
:104200003A9910F0A1FC00220EA928A810F033FD65
:10421000E1B29DED0E0AB06805F031FFAFF2D711A3
:1042200028A810F0EFFA2246B9A128A80BF086F9C9
:104230002246BC490FA80BF081F97FA1A1208DE88F
:1042400023000FAB40F6B832394628A810F07CFCAA
:10425000641C072CACDD9FEDB40B04958DED020BB7
:10426000B34B41F28732CDF80080B2A03A9910F0FA
:104270006BFCAFF22B21AFA010F0C4FACDF8009088
:10428000CDE90195AF4B40F69D723946AEA010F0D6
:104290005BFC40F674600427CDE9007040F69E7A1E
:1042A000AD4B524602956DA03A9910F04DFCAFF21D
:1042B00021216AA010F0A6FA40F2EE20CDE9010516
:1042C0000224A64B524600946BA03A9910F03CFC95
:1042D000AFF2452168A010F095FA4FF0640ACDE9DD
:1042E00001A540F6A17B9E4B5A46009449A03A99FD
:1042F00010F02AFCAFF2692146A010F083FACDE954
:1043000001A5984B5A46009445A03A9910F01CFC20
:10431000AFF2852142A010F075FACDE90078924BFA
:104320005A46029545A03A9910F00EFCAFF2A12131
:1043300042A010F067FA0720CDE901058B4B5A46E1
:10434000009442A03A9910F0FFFBAFF2BD213FA0CC
:1043500010F058FA0320CDE9009040F6A277844B84
:104360003A46029548A03A9910F0EEFBAFF2E121EF
:1043700045A010F047FA4120CDE901057D4B3A46B2
:10438000009445A03A9910F0DFFBAFF2FD2142A066
:1043900010F038FA00220BA91EA010F06CFC0022CD
:1043A0000AA91FA010F067FC002208A927A010F09E
:1043B00062FC002207A921A010F05DFC00220DA9DB
:1043C00061A010F058FC002205A95AA010F053FC7F
:1043D000002206A921A010F04EFC0A490022891CE7
:1043E00025A010F048FC00220CA927A010F043FCE7
:1043F000002209A928A010F03EFCBDF82C10B068DE
:10440000BAE000000C0000207369676E6174757279
:10441000652564004D617820626C6F636B730000EA
:104420004D617820626C6F636B73207065722073CE
:1044300069676E6174757265000000004D696E20D9
:10444000626C6F636B206172656100004D61782062
:104450006D65726765206469737400005369676EE7
:104460006174757265207465616368207468726533
:1044700073686F6C640000004C4544206272696789
:1044800068746E6573730000426C6F636B206669BD
:104490006C746572696E67004D6178207472616337
:1044A0006B696E672076656C6F63697479000000D4
:1044B000636F6C6F725F636F6E6E65637465645F6C
:1044C000636F6D706F6E656E7473000070616E5F08
:1044D00074696C745F64656D6F000000000000001B
:1044E00000000C40436F6C6F72207369676E6174DB
:1044F00075726520256400005369676E617475727A
:10450000652025642072616E67650000908201104D
:104510005369676E6174757265206C6162656C20A9
:1045200025640000C0830110000000A09999C93FD4
:10453000AC8101104D696E206272696768746E65A6
:104540007373000008840110436F6C6F7220636FF7
:104550006465206D6F646500FC7F011008810110A7
:10456000A87F01103C7F0110888001104C8301104E
:1045700004820110E082011004F0EAFFBDF8281067
:10458000B06804F0EEFF0799B06804F0EDFFBDF8E5
:104590002010B06804F0EEFF9DF83410B06804F00D
:1045A000E6FF9DED050AB06805F036F90699B0689A
:1045B00005F06DFD7088389038A80FF0DDFF9DF88C
:1045C0003010B06803F05AFCBDF82410B06803F056
:1045D00051FCFFF717FD3BB0BDEC028BBDE8F08F3F
:1045E00070B50546042012F03BFB08B105F062FDF2
:1045F000FE4C60604FF42D7012F032FB18B1FC4A93
:10460000616803F03EFCA060FA49284611F0EFFB18
:10461000FFF7A0FD002070BD10B5F448406805F01C
:1046200045FD002010BD10B5F048806803F094FCF3
:10463000002010BDF0B595B00646DDE91AC41C9FF8
:104640000D4610881988BCF800202388ADF82C008E
:10465000ADF82E10ADF83020ADF832302B78581E62
:10466000072803D34FF0FF3015B0F0BDE2480068D3
:1046700080B3DE4C0BAAE049A06805F05CFA29780B
:10468000A06805F071FC04463068E0610BAADA49C5
:1046900002A804F0F0FF002102A805F087F8A0614D
:1046A0002A78AFF29C210DA80AF048FF0020009064
:1046B0002346202281210DA810F005FBFFF7A2FC64
:1046C000CEA1002010F0A8F90121384600F028FE04
:1046D0000020C9E7FFE7CDA1002010F09DF96FF0A1
:1046E0000100C1E72DE9FF4F8FB005469846CE4F38
:1046F000B8F1000F49D000204FF0B2090224CDE9F3
:104700000A090D90CDE908040C90CDE90604CDE925
:1047100004044FF0410ACDE90204CDE9000A4FF448
:10472000903B64235A463946404612F00BF8064641
:1047300028688200A968B8190BF090FA28681199C6
:10474000CDE90A19800040080C900994D0211098F6
:10475000CDE90541CDE907401C984FF49E71CDE9A4
:1047600001A0CDE90341B148009064235A4639467F
:10477000404611F0E7FF286813B006EB8002394687
:104780004046BDE8F04F11F0E8BF13B026E72DE931
:10479000F04397B00746DDF878800C4691461D46F9
:1047A00000260B9610210C91A14A042012F0F6FA73
:1047B0000D902078401E072806D30D9812F040FA7D
:1047C000701E17B0BDE8F0838B480068002845D004
:1047D000B9F800102A8816A8ADF85810ADF85A207C
:1047E0000246824D207800900BAB8349A86805F003
:1047F00090FB2178A86805F0B7FB05463868E861AA
:104800000BAA7D4902A804F04FFF002102A804F082
:10481000CDFFA861032004220090434611460BA857
:10482000FFF760FF2278AFF220410EA80AF086FE63
:104830002B46202281210EA8009610F044FAFFF7A3
:10484000E1FB6EA1002010F0E7F80121404600F0E6
:1048500067FD0D9812F0F4F90020B2E76BA100207B
:1048600010F0DAF80D9812F0EBF96FF00100A8E7FC
:1048700030B591B004460D4601A810F02AFD20780D
:10488000401E072803D34FF0FF3011B030BD202168
:1048900001A80BF084FA2278AFF2944109A80AF03B
:1048A0004DFE0020009001AB2022812109A810F0CC
:1048B0000AFA0446FFF7A6FBFFF7A4FB01212846EE
:1048C00000F02EFD2046E0E770B592B0064602A843
:1048D00010F0FFFC202102A80BF061FA0124002552
:1048E0002246AFF2DC410AA80AF028FE02AB2022E1
:1048F00081210AA8009510F0E6F900280ADB641C63
:10490000E4B2072CECD9FFF77DFB0121304600F023
:1049100007FD002012B070BDF0B5ADB005460F46E2
:1049200016460021AFF2784000F029FA0446002133
:10493000AFF2684000F023FA1934012101FA04F2C1
:10494000193081400A434FF07E4494432A68394924
:10495000501E884203D34FF0FF302DB0F0BDAFF2B0
:10496000504125A80AF0EAFD33490CA82A680AF04C
:10497000E5FD394604A80BF0D7F804A9A122CDE93A
:104980000021002002900CAB40F6B832214625A849
:1049900010F0DAF8002805DA002304AAA12125A8DE
:1049A00010F091F90121304600F0BAFC0020D4E764
:1049B00010B50368002002E0145C1C54401C0C6815
:1049C0008442F9D8086810BD2DE9F0438BB08146C8
:1049D0000C469046484611F049FE4FF0FF3520B195
:1049E0002089C0EBC000400028E02FE00C00002030
:1049F00000100910C86B0110480100205369676E50
:104A0000617475726520736574210A004E6F20729F
:104A10006177206672616D6520696E206D656D6FCE
:104A20007279210A0000000000000810424C543145
:104A3000972E0110DF2B0100C08301100AF07AFCD1
:104A40000746380005D0246800251AE028460BB038
:104A5000B8E62846FBE721460878032833D0022829
:104A600031D0143161B1C5EBC50007EB40063046CB
:104A700004F003FD60783073A07A70736D1CADB2E2
:104A8000646A002CE7D10020C5EBC501CDE90870B0
:104A9000490007910A9042204FF49E73CDE90330FC
:104AA0008121D022CDE905214121CDE900180290D4
:104AB000424B64220021484611F028FC38460AF097
:104AC00068FC0020C3E70021CCE710B5000244F6E3
:104AD0002061B0FBF1F0002814D000EE100AB8EE0F
:104AE000400A12F0BDFB9FED361AF2EE040A40EECA
:104AF000010ABCEEE00A10EE100AFF2800D9FF20E0
:104B0000C0B210BD012010BD2E490870704730B5ED
:104B100087B02C4C2078002847D100221146A0688D
:104B200004F054FCA0B30188072908D8491EA268E4
:104B300001EB810102EB8101D1F8F05001E06FF04F
:104B40007F4581884288891A0289C088101A4143AA
:104B50000846FFF7BAFF044604AB05AA06A9284693
:104B600010F07CFB049818B16043000A401C00E080
:104B700000200490059818B16043000A401C00E032
:104B800000200590069820B16043000A401C01E017
:104B90000DE0002006900390059802900498019083
:104BA00001AA02A903A80EF015FB07B030BD002032
:104BB000039003A80FF052FFF7E700004343423190
:104BC0000000A0420C000020096800680BF03AB910
:104BD00070B5D4B0E6A114A80AF0A6FF0024F44DE5
:104BE000F44E0CE005EB041022460368F2A104A881
:104BF0000AF0A4FC04A914A80BF024F8641CB079F2
:104C00008442EFDB00240125CDE9005440F696767E
:104C100014AB32462146EBA002940FF095FFCDE98C
:104C20000054EC4B32466902EBA002940FF08CFF6B
:104C3000CDE90054EFA3721E0021FEA002940FF0F4
:104C400083FFDC490022C91CFAA010F014F8D949EE
:104C500000220931DBA010F00EF854B070BD70B521
:104C60000546D44CD2481022A179AFF2A3030AF032
:104C700094FEF249284611F0BAF8F24D0022F0A154
:104C8000286811F011FA60810022EFA1286811F064
:104C90000BFAA0810022EEA1286811F005FAE0814C
:104CA000FFF796FF002070BD70B504462DED028B16
:104CB000A2B0BF4800268038BE4D0078002811D031
:104CC00044B1BB4B0096803BA122002120460196B7
:104CD00011F01CFB287888B3A978084422B0BDECF9
:104CE000028B70BDB248E97900EB0110016802A89F
:104CF0000AF01AFF287890B10EF06CF910EE100A45
:104D000015F0C8FC41EC180B02A80AF031FF02A90B
:104D1000084453EC182BD0A10AF010FC03E0D3A1F7
:104D200002A80AF08FFF002CD4D0009602ABA1227B
:104D300000212046019611F0E9FACBE7FFE70020B9
:104D4000CCE79C490020487070479A480121417087
:104D500001700020704797498A79904202D34FF042
:104D6000FF307047C87100208861087A704700B52D
:104D70000246FFF7EAFF10785DF804EBEBE72DE958
:104D8000F041074600248A4D8A4E0CE038460AF06E
:104D9000EFFE024605EB0410394600680AF007FFF3
:104DA00040B1641CE4B2B0798442EFD34FF0FF30DD
:104DB000BDE8F0812046FBE708B50021FFF7DFFFE3
:104DC0000346002B01DA184608BD0021684600930F
:104DD000FFF7CDFF984201D1012008BD002008BD9A
:104DE000744800210930C2E700B50B461146FFF7B1
:104DF000BEFF002803DB6F4918688861002000BDF2
:104E00007FB504460D466B4E2078B179884203D3B6
:104E10004FF0FF3004B070BD75B1654A002102EB60
:104E20000010A1234268CDE901210093039103689A
:104E3000A122284611F06AFA2078F179884201D13E
:104E40000120E7E70020E5E7F8B50024584D594E6A
:104E50000BE005EB0410224641680091036886A12F
:104E600000200FF0D9FD641CE4B2B0798442F0D385
:104E70000020F8BD8349896B4CF2AB12B2EB114FA5
:104E800002D04FF0FF30704789B20A0B0280C1F3A5
:104E900003224280C9B281800020704730B587B0BC
:104EA00004467948D0E91412806DCDE904120690C9
:104EB00004AB981DFFF7DEFF05464CB10020CDE99D
:104EC00000300146029006238222204611F01EFA8D
:104ED000284607B030BD1CB5002806D0002100913F
:104EE0006AA3A122019111F011FA00201CBD2DE945
:104EF000F04387B0064689464FF0FF3500270697F6
:104F000005973488DFF8AC80D8F81400002817D053
:104F1000016805AB06AA4D692146A8470546280049
:104F20000ED50024D8F8140005AB06AA0168D1F804
:104F300014C02146E047002818DA3088201A84B2CD
:104F4000002D0BDA012C09D23C48083850F83410F7
:104F5000069100EBC400406805900025B9F1000FF0
:104F600005D00598CDE90107A12193E09EE099E0E5
:104F700053656C65637473207468652070726F6725
:104F800072616D206E756D62657220746861742740
:104F9000732072756E2075706F6E20706F776572FA
:104FA0002D75702E20406320457870657274000066
:104FB000A0030020180000202040732025643D2518
:104FC0007300000044656661756C742070726F67D1
:104FD00072616D00FC87011050726F6772616D2005
:104FE00073656C656374206F6E20706F7765722DCA
:104FF00075700000406320457870657274205365B9
:10500000747320746865206465627567206C6576CA
:10501000656C20666F7220746865206669726D77B2
:105020006172652E202864656661756C7420302974
:10503000000000004465627567000000986C011074
:1050400072756E007801002072756E6E696E670071
:1050500073746F70000000002072756E6E696E6769
:1050600020252E3266206670730000002073746F56
:10507000707065640000000025643A2025732C20C0
:1050800025730A0000500440106E011067656E65BC
:1050900072616C0000910A46039700214846069B06
:1050A00011F034F907B02846BDE8F083641CA4B2BF
:1050B00038E70020F849F84A103208C918449142EC
:1050C000FBD370473EB502460D46F44840690028C0
:1050D00015D011880268D36802AA98470446002CAC
:1050E00001DA20463EBD45B1002000900190014606
:1050F000A1222846029B11F009F920463EBD4FF03F
:10510000FF303EBD70B504460020E44D6A69002AB8
:1051100004D010682188036910469847002801DBF5
:105120002188298270BD10B50EF0FEFE04460CB138
:10513000012000E00020FFF7E7FC204610BD10B57D
:10514000D548D7A1D0E90D2300200FF065FC002041
:1051500010BD30B587B00446002106A8CDE9011086
:10516000CE4DD2480391009404910123B5F90A2051
:10517000006810F080FF2C710698AAE61FB5002089
:1051800003A9CDE9001003460290C4480021B0F9FC
:105190000C20C648006810F06EFF0398C0B204B03F
:1051A00010BD1FB5002003A9CDE9001003460290F1
:1051B000BA480021B0F90E20BC48006810F05BFF2F
:1051C000FFF7DCFF0028FBD10398E8E710B5FEF7F6
:1051D000C1FF01F057FF0EF047FD0EF0DBFE00218E
:1051E000B3A0FFF7CCFD40B205F0E8FBBDE81040EE
:1051F000EEE410B50FF094FE10F026F8002802D06F
:10520000BDE81040E2E710BD38B500226946AFF2B4
:1052100038200FF030FDA14C607AE0719DF800005D
:1052200028B1E11DA079FEF784FEE07960729B4809
:105230000021C01DFFF79BFD38BD9848C07940B2E2
:105240007047FEB5002501950095ADF80850002483
:105250009B49082011F018FD00B1456068B1046059
:10526000BDF80810491CADF80810009939B1019A31
:105270005060019028B1641CEAE72846FAE70090E4
:10528000F7E722468FA100200FF0C6FB6C4600987E
:1052900003E0466811F0D8FC30460028F9D165607B
:1052A00025602581FEBD10B57C4C606900280FD0BB
:1052B00001684968884700206061E078000605D5EC
:1052C00082A100200FF0A8FBFFF7BBFF002010BD5C
:1052D0004FF0FF3010BD70B50146704D6869002871
:1052E00009D07C4A0026167041B101688A68794964
:1052F0009047044607E04FF0FF3070BD01688A68B0
:10530000002190470446E878000601D5FFF799FF91
:10531000002C02DD0120A87000E0AE70204670BDB8
:105320000EB5002809D00423CDE9003100220292F5
:10533000694B6422182110F0E9FF0EBD70B50446D8
:10534000564DA879844201D8686910B14FF0FF30FA
:1053500070BDE878000605D560A100200FF05CFB69
:10536000FFF76FFF5B48803000EB0410C1682046F8
:105370008847686108B1002070BD6FF0010070BD02
:105380000EB50025DFF814B100268BF80560FFF795
:105390003BFF102011F064FC08B111F0FBFB514FF2
:1053A0000146386810F022FF07208BF80800DFF86C
:1053B00038A14FF001094FF00308386811F056F991
:1053C0000446200008D09AF8000028B1386811F08F
:1053D00050F908B1012000E000200290FFF709FF1A
:1053E0009BF8050048B101283BD003287ED0042853
:1053F0007DD08BF805802546DFE701A801960FF0E8
:105400002DFB9BF807509BF80800A84205D1DBF85C
:10541000140010B18BF80590EDE7FFF744FF9BF8FF
:105420000800A84208D00EF003FF4FF0FF30ABF8A1
:1054300010000020FFF768FB2846FFF77FFF0028D9
:1054400002DA8BF80580D6E79BF80800A84205D061
:1054500003213868FFF764FF8BF808508BF805903C
:10546000C9E701F083FE01F06FFE9BF8010040B137
:105470009BF807009BF80810884205D08BF8056060
:10548000B9E78BF80580B6E70298FFF724FF0028FC
:105490002EDA8BF80580AEE700500440180000209B
:1054A0003078257820307825780A000078010020AF
:1054B0006C696E655F747261636B696E6700000092
:1054C000297B01106D656D2025640A00457869749B
:1054D0003A0A000020030020455654315365747584
:1054E000703A0A00740100208D01002009E016E0E6
:1054F000A54380D000216248FFF739FC8BF8056096
:1055000079E7684600960FF0A9FAFFF7CCFE8BF812
:1055100001608BF8006004208BF805006BE79BF8B6
:10552000010020B1FFF711FC8BF8056063E79AF8E2
:1055300000106042084286D100215148FFF717FC55
:105540008BF8056057E770B54D4D4E4B093DE97935
:1055500003EB01110A7A824204D8497A814201D3CD
:10556000002070BD0021AC790BE003EB0112167A2C
:10557000864205D8527A824202D3E971002070BD7A
:10558000491CA142F1DB4FF0FF3070BD2DE9F84F0F
:105590000746884691461C46394D6FF0050A093D7D
:1055A0006879012805D021465046BDE8F84F01F042
:1055B000FCBAA87830B12146BDE8F84F6FF004007E
:1055C00001F0F3BA6869002826D03846FFF7BBFF20
:1055D0006FF00306002805DA21463046BDE8F84F93
:1055E00001F0E3BAE879297A884205D0214650468D
:1055F000BDE8F84F01F0D9BA009468694B464246BD
:105600000168CD693946A847002805DA21463046A9
:10561000BDE8F84F01F0C9BABDE8F88FF8B5064605
:105620000D46174C093C6069002811D0684601F00E
:1056300096FA6069009A334601688C691146921C9B
:10564000A0472A4604210D2001F05BFA0020F8BD96
:105650004FF0FF30F8BD10B5FFF790FD04460CB1D8
:10566000FFF79FFD204610BD10B50748006804F005
:1056700087FD034809380079BDE8104069E500005E
:1056800021000020A003002010000020F8B50446EF
:10569000AC4800250570A068416801F0F80111F0E0
:1056A000070F71D1C9100C3904260827A64B1429FD
:1056B0006AD2DFE801F00E810E81123112313135EC
:1056C0008135747481818181810A0660A068876157
:1056D000F8BD0660A0688761F8BD8068C1B2D4E9F2
:1056E0000702801AE268101A00280CDDA069421C2B
:1056F000A26122691154E069401CE061E168A0697F
:10570000884200D1A561187808B901F060FBA06853
:105710000660A0688761F8BD0660A0688761F8BD73
:10572000217921B1617911B18560257132E0187854
:1057300010B1206B48B114E0684601F03AFB10B399
:10574000A1689DF80000886024E0D4E90910626B2C
:1057500090472063002800D0E56202D14FF000009E
:105760000CE0E06A00F10101E162A16A085C0090CE
:10577000206BA0F1010020634FF0010028B1A16867
:105780009DF80000886005E016E0A06885604FF095
:1057900001002071A0680660A0688761F8BDA0794B
:1057A00028B1E562256304F10C0014F0F5F9A06856
:1057B0000660A0688761F8BD2C218161F8BD614851
:1057C000406863E708B58DF8011000218DF80310DB
:1057D0008DF80010806869460CF0A6F8002008BD1E
:1057E0002DE9F0410446884617461E46574820607A
:1057F00004F10C054020286011F02AFA6860284660
:1058000014F0CAF918352020286011F021FA6860D8
:105810002E610026AE60EE604046C4F8088001218B
:105820006171A6714A490CF03FF839462046FFF7EE
:10583000C9FF484806702046BDE8F08110B504460F
:10584000382011F00DFA234654224349FFF7C8FFD0
:105850003C49486010BD82683821916180684421CC
:105860000160704710B504460023F0220321012097
:1058700012F0C2FC0423F0220121022012F0BCFC31
:105880000023F0220421012012F0B6FC0423F022B0
:105890000021022012F0B0FC304900200860207185
:1058A0004FF0E0214FF48020C1F800012046FFF7BF
:1058B000D2FF002010BD2A494FF48020086000204C
:1058C000704770B5002319E0CD18D0E90746A41B36
:1058D000002C01DC00240FE04469661C4661066967
:1058E000345D2C70046A641C0462C5684469AC426F
:1058F00001D100244461012414B15B1C9342E3D321
:10590000184670BDD0E90710081A704700B58168C5
:105910000A68520702D4FFF79EFF0DE04868F82896
:105920000AD1084A1078322804D96C2088610020F6
:10593000107001E0401C1070002000BD81714271A8
:10594000704700003400002062000020947D0110A8
:10595000A086010017E400E000100A401812104071
:1059600080E100E010B5032802D34FF0FF3010BDF6
:10597000FD48008828B1FD4901200870322012F04E
:105980007DFB002010BD08B5F9490020C8700871E2
:105990004871009068460FF061F8F6480088009062
:1059A00068460EF0E9FD08BD7CB50120019001A814
:1059B0000DF032FDFEF730FEEC480024401C047070
:1059C000ED48006804F0DCFB0020FFF7C2FBE84D67
:1059D000AC7100F031FE016801228B68694698477E
:1059E0000028F6D1AC70FFF7CEFFDF48B0F9000019
:1059F000002802DA0120FFF7B5FF7CBD70B505462F
:105A0000DE49042011F040F9002807D00446DC48A4
:105A1000294620600846FFF7C7FF204670BD10B535
:105A2000FFF7BFFBBDE81040FEF7FDBD2DE9F041DB
:105A300086B000F001FE04460025CD4E4FF001086F
:105A40000027B07858B101280ED002281ED0B770B8
:105A50006D1CEDB20A2DF4D306B0BDE8F081FF2035
:105A6000307086F80280F3E72068012205A9836878
:105A7000204698470028EBD0307801029DF81400AA
:105A80000143318130700220B070E1E73089FF2896
:105A900006D0FE2823D0FD282ED086F80280D7E736
:105AA0002068C168204688470428D1DB206802228C
:105AB00004A98368204698472068022203A98368C6
:105AC0002046984704A902A802970DF059FC03A9A3
:105AD00002A8CDF808800DF053FCB770B8E7206835
